:100000000C9430020C9468020C9468020C94680200
:100010000C9468020C9468020C9468020C946802B8
:100020000C9468020C9468020C94BD180C94791816
:100030000C94BA190C9468020C9468020C9468022F
:100040000C9468020C9468020C9468020C94680288
:100050000C9468020C9496190C9468020C94680233
:100060000C9468020C9468020C9468020C94680268
:100070000C9468020C9468020C9468020C94680258
:100080000C9468020C9468020C9468020C94680248
:100090000C9468020C9468020C9468020C94680238
:1000A0000C9468020C9468020C9468020B00110016
:1000B00000000800070000001400040000001C00FD
:1000C0000B000000000000000000000000001C0009
:1000D00018000C00120013000000000000000000D7
:1000E00000000B000D000E000F00330000000000A8
:1000F0000000000000001100100036003700383208
:10010000000000000000E3002A412C42280000000B
:100110000000000014001A0008001500170000007D
:1001200000000000000000000400160007000900A5
:100130000A00000000000000000000001D221B005B
:10014000060019000500000000000000000000008B
:100150000000000000000000000023002400250033
:1001600026002700000000000000000000002D0015
:100170002E002F00300034000000000000000000BE
:1001800000003502350001000100310000000000D0
:10019000000001000100010001000000000000005B
:1001A0001E001F00200021002200000000000000AF
:1001B000000000002B000100010001000100000010
:1001C000000000000000000001000100A800A900DC
:1001D000AA00000000000000000000000000000075
:1001E000000000000000230224022502260227024C
:1001F00000000000000000000000010001000100FC
:10020000520001000000000000000000000001009A
:100210000100500051004F000000000000000100EC
:100220000100010001000000000000001E021F028A
:100230002002210222020000000000000000000055
:1002400001000100010001000100000000000000A9
:100250000000000001000100A800A900AA000000A1
:10026000000000000000000000000000000000008E
:1002700000003A003B003C003D003E000000000052
:100280000000000000003F00400041004200430029
:10029000000000000000000000000100010001005B
:1002A0000100010000000000000001000100010049
:1002B0000100000000000000010001000100010039
:1002C000010000000000000000000000010001002B
:1002D000010001000100000000000000000000001B
:1002E0000100010001000100010000000000000009
:1002F0000000000005010902A10185020901A10019
:1003000005091901290815002501950875018102C3
:100310000501093009311581257F9502750881068F
:1003200009381581257F950175088106050C0A3865
:10033000021581257F950175088106C0C005010958
:1003400080A101850319012AB700150126B7009580
:100350000175108100C0050C0901A1018504190176
:100360002AA002150126A002950175108100C00582
:10037000010906A1018506050719E029E7150025F1
:10038000019508750181020507190029EF1500255F
:100390000195F0750181020508190129059505757A
:1003A000019102950175039101C005010906A101A2
:1003B000050719E029E71500250195087501810257
:1003C0009501750881010507190029FF150026FF11
:1003D0000095067508810005081901290595057520
:1003E000019102950175039101C009023B000201D0
:1003F00000A0FA0904000001030101000921110114
:1004000000012240000705810308000109040100E2
:10041000010300000009211101000122B6000705B7
:1004200082032000011201000200000008241406CB
:100430000000010102000110036300680065006113
:10044000007000690073000000100364006F007406
:10045000006C0065006F006E0000000403090400DA
:1004600011241FBECFEFDAE0DEBFCDBF04B603FE1E
:1004700018C08091120390911303A0911403B091BE
:1004800015038730904BA740B04B59F410921203DC
:10049000109213031092140310921503E0E0F8E396
:1004A000099511E0A0E0B1E0EAE0FCE302C00590AC
:1004B0000D92AC36B107D9F723E0ACE6B1E001C04C
:1004C0001D92A231B207E1F70E94E1190C94C41DFC
:1004D0000C940000E8EDF0E080818E7F8083109224
:1004E000E2001092DA001092E100A0EEB0E08C91F0
:1004F00081608C9380818F77808319BCA7EDB0E0F9
:100500008C918E7F8C9380818F7E80831092E0020D
:1005100008952091E4003091E50095E6A90120912D
:10052000EC00822F817020FF06C08091E80080FFE0
:1005300006C080E008952091E80022FD1AC0809155
:100540000503882389F0853089F08091EB0085FDD3
:100550000FC02091E4003091E50042175307F9F2F3
:100560009150E1F684E0089582E0089583E00895D3
:1005700081E008958091070387FF13C08091E80010
:1005800082FF06C08091E8008B778093E80004C06A
:10059000809105038111F2CF08958091050388238E
:1005A000D9F38091E80080FFF8CF8091E8008E7742
:1005B000ECCF982F9093E900242F762F50E08917E5
:1005C00031F07091EC002091ED005091F00021FD90
:1005D00007C09F5F973071F78093E90081E008952D
:1005E0003091EB003E7F3093EB003091ED003D7F8A
:1005F0003093ED003091EB0031603093EB0070935D
:10060000EC002093ED005093F0002091EE0027FDC8
:10061000E0CF80E00895B0E0A0E0E1E1F3E00C94E9
:10062000341DC8EDD0E088818F7E8883E7EDF0E04F
:1006300080818160808384E082BF81E08093E002DA
:1006400088818E7F888302EE10E0F801108210927C
:10065000DA0081EEC82ED12CF601108288818F77C6
:10066000888388818068888388818F7D888319BC8E
:1006700010920503109206031092040310920303D4
:1006800090EEE92EF12CF70180818B7F80838881A9
:100690008160888342E060E080E00E94D902F60138
:1006A00080818E7F8083F80180818160808380815A
:1006B00088608083F70180818E7F8083888180615C
:1006C0008883CDB7DEB7E8E00C94501DFC01809123
:1006D0000D0390910E0386179707A0F06115710521
:1006E00029F49091E8009E779093E80090E06115DE
:1006F000710551F4911108C08091E80082FF34C067
:1007000080E00895BC01F2CF809105038823C1F1F8
:100710008530C1F18091E80083FD30C08091E80010
:1007200082FDEACF8091E80080FFE1CF8091F30065
:100730002091F200382F6115710519F0283031052C
:1007400058F091E02830310509F090E02091E80060
:100750002E772093E800CBCF81918093F1006150F8
:1007600071092F5F3F4FE7CF80910503882341F048
:10077000853041F08091E80083FFBECF81E008958D
:1007800082E0089583E008958091E20208959C013B
:100790004FB7F8948091DA029091DB02A091DC02CD
:1007A000B091DD024FBF821B930B08952FB7F894D1
:1007B0008091DA029091DB02A091DC02B091DD021F
:1007C0002FBF0895209125012223C9F02091DE0238
:1007D00027FF15C0E62FE695E695E695EE31D8F4AD
:1007E000E80FF92FF11D677021E030E001C0220F02
:1007F0006A95EAF720958281282322830895FC01D7
:10080000329608962191621303C0DF0111971C9262
:10081000E817F907B9F70895209125012223C1F0BF
:100820002091DE0227FF14C0E62FE695E695E695B7
:10083000EE31F8F4E80FF92FF11D677021E030E098
:1008400001C0220F6A95EAF78281822B8283089584
:10085000FC0132962FEF30E04191641751F02F3FA9
:1008600019F4411101C0232F3F5F3630A9F72F3F04
:1008700009F40895820F911D27FD9A95FC0162836A
:100880000895A3E0B0E0E7E4F4E00C943A1D209171
:10089000D7023091D80228173907A1F09093D802D7
:1008A0008093D702E091D502F091D602309751F0B3
:1008B00024E029839B838A830680F781E02DCE0183
:1008C000019609952396E2E00C94561DA3E0B0E052
:1008D000ECE6F4E00C943A1D2091D3023091D4025E
:1008E00028173907A1F09093D4028093D302E091A6
:1008F000D502F091D602309751F023E029839B83F3
:100900008A830680F781E02DCE0101960995239612
:10091000E2E00C94561DE091D502F091D60230979A
:1009200029F00190F081E02D0995089580E0089567
:10093000DC016091CF028091D002962F891301C013
:100940000895292F30E0F901EE0FFF1FE953FD4F05
:10095000408151814A175B07A1F487E08A9FA0017B
:100960008B9F500D1124485F5E4F81E0FA01848314
:100970009613E6CF2F5F3F4F237033272093CF028C
:1009800008952F5F3F4F922F9370D8CF109263023C
:1009900010926202E8E0F1E08581811102C01482C8
:1009A0001682379681E0E432F807B1F708950E9485
:1009B000D6039C0190915E0280915F02982B21F0FA
:1009C00030935B0220935A02909160028091610201
:1009D000982B21F03093590220935802E091D502D0
:1009E000F091D602309749F082E080935C02048057
:1009F000F581E02D8CE592E00995089580915702EC
:100A000080FD16C081FD16C082FD16C08091560281
:100A10008823A1F0883280F428E0829FC00111244D
:100A200068E270E00E94101D862F672B39F0089550
:100A300082E0089584E0089588E0089581E00895B3
:100A40008091570280FD14C081FD14C082FD16C044
:100A500080915502882381F08E3180F420E5829FB9
:100A6000C00111246EE170E00E94101D862F0895D0
:100A700084E1089588E2089588E0089580E5089566
:100A800080E00895F894E82FE295EF70F0E031A14E
:100A9000282F2F7081E090E001C0880F2A95EAF797
:100AA000982F9095932391A392A1892B82A3789458
:100AB00008959091DE0292FF06C0282F28712830F9
:100AC000F9F4877F846093FF06C0282F28712831AE
:100AD000F1F4877E84612091DF0220FF06C0382F69
:100AE00038713830D9F4877F816021FF06C0282F04
:100AF00028712831D1F4877E816194FD877E089525
:100B0000282F24712430F9F68B7F8860DCCF282FC2
:100B10002471243101F78B7E8861DDCF382F31714C
:100B2000313019F78E7F8860E0CF282F2171213175
:100B300021F78E7E8861E1CF972F7730B8F46A3045
:100B4000A8F4843098F470E02AE0929F600D711D43
:100B50001124FB0196E4899FE00DF11D1124EE0F95
:100B6000FF1FEC53FF4F85919491089580E090E032
:100B70000895CF93DF93EC0182389105B9F108F025
:100B800041C08133910509F49FC050F58932910528
:100B900009F48FC08A9709F49EC0C11520E5D207D9
:100BA00008F0BDC0C11530E4D30708F00AC1C03E4B
:100BB000D10508F0A5C0CD3CD10508F000C1C83A68
:100BC000D10508F08FC0C53AD10508F0F0C0C1309A
:100BD000D10539F1209729F1C430D10510F546C06F
:100BE0008533910509F460C0C997B9F68091DE029A
:100BF000837009F044C18091DF0283FF12C0C9E213
:100C0000D0E00FC0833E9105A1F178F4803E9105BC
:100C100009F1823E910509F0C0CF8091DE0282FD8C
:100C200021C0CE01DF91CF910895863E910561F1FB
:100C3000873E910571F1843E910509F0AECF809118
:100C4000DF0281FFEECF8091DE02C7EED0E084FDAF
:100C50000DC0E7CF8091DE0280FD33C09091DF02AE
:100C600090FFDFCFC3EED0E084FFDBCFD0E0C0E069
:100C7000D8CF8091DE0282FDFFC09091DF0290FD0F
:100C8000FEC084FFCECFF2CF8091DE0283FDDDCFA8
:100C9000C8CF8091DE0283FDF5C09091DF0291FF05
:100CA000F0CFC4EED0E0BDCF8091DE0285FFB9CF9A
:100CB000A6CF8091DE0285FDE8C08091DF0283FF30
:100CC000B0CFC9E3D0E0ADCF8091DE0286FFA9CFDF
:100CD000CAE2D0E0A6CF8091DE0286FFA2CFC1E3B8
:100CE000D0E09FCFC13CD10508F6C85AD0E0CC0F68
:100CF000DD1FC75DDE4F0990D881C02DD46491CF30
:100D0000C11540E2D40708F0AAC0C11581E0D80798
:100D100008F087CFC83ED10508F483CFA7CFC036EF
:100D200022E5D20718F5C03432E5D30708F053C0E6
:100D3000C03242E5D40708F047C0C11582E5D807A4
:100D400008F47FC02C2F2695269540E2249F900121
:100D500011248C2F8370C1E0D0E002C0CC0FDD1FC6
:100D60008A95E2F7C22BD32BDD685BCFC03A22E530
:100D7000D20760F4C03832E5D30708F441C0CF7120
:100D8000D0E0DC2FCC27C46FD06A4BCFC03C42E50B
:100D9000D40708F44AC0C03E82E5D80708F066CF01
:100DA000DC2FCC27CC27DF71C06FD06A3ACFC55A71
:100DB000D0E0CA5DDE4FC881D0E0D06432CFD065CC
:100DC00030CFDF70D06A2DCFCF71D0E0DC2FCC27B1
:100DD000C16FD06A26CF2C2F26952695277080E2EA
:100DE000289F900111248C2F8370C1E0D0E002C0B5
:100DF000CC0FDD1F8A95E2F7C22BD32BDC6811CF15
:100E00002C2F26952695277040E2249F90011124CF
:100E10008C2F8370C1E0D0E002C0CC0FDD1F8A951B
:100E2000E2F7C22BD32BDA68FCCE8C2F8F710E9495
:100E30005905C82FD0E0DC2FCC27CC27DF71D0623A
:100E4000F0CE8C2F8F710E94590535E0D695C7954D
:100E50003A95E1F7CF709C2FEC01D069E2CE8D2F4F
:100E60008F710E94590590E0982F882788279F71DD
:100E70009C012C2BE901E3CFC2EED0E0D2CEC0EE34
:100E8000D0E0CFCEC6EED0E0CCCEC5E3D0E0C9CE28
:100E900080911F02811110921F02089580959091F8
:100EA0001E02982390931E0208958091FC01909158
:100EB000BB01981301C008958F5F8770FACFB0E02F
:100EC000A0E0E5E6F7E00C94331D7C0100913302CD
:100ED000109134028091310290913202082B192B2B
:100EE000CFE0D0E0CC24C394D12CBC2EC6010C2E74
:100EF00002C0880F991F0A94E2F780239123892B5F
:100F000049F4219790F7B12C8B2DCDB7DEB7E9E0EE
:100F10000C944F1DB7018C2F0E949C050E94B905AF
:100F2000019779F3F1CFCF93DF93EC010E945F0734
:100F3000BE010E949C050E94B905DF91CF910895E2
:100F4000973078F58A3068F5E82FF0E08AE0989FCE
:100F5000E00DF11D11249E2F977083E0F695E79523
:100F60008A95E1F7EE0FFF1FEE0FFF1FE157FE4FCF
:100F700050E040E080E0219130E0092E02C036953B
:100F800027950A94E2F721703327042E01C0220F1F
:100F90000A94EAF7822B4F5F5F4F4430510559F7AF
:100FA000089580E00895973098F58A3088F5E82F05
:100FB000F0E08AE0989FE00DF11D11248E2F8770DC
:100FC00041E001C0440F8A95EAF783E0F695E79582
:100FD0008A95E1F7EE0FFF1FEE0FFF1FE157FE4F5F
:100FE00030E020E070E05191DF011197CB01022E3B
:100FF00002C0969587950A94E2F7817081958527BE
:10100000842385278C932F5F3F4F2430310559F778
:1010100008959093340280933302089521E030E0E4
:1010200002C0220F331F8A95E2F7209530958091F8
:10103000330290913402822393230E940908089579
:101040009091FD01809589238093FD01282F2770C1
:1010500091F4282F082E000C330B9217130659F029
:101060009091DF0292FF07C08595859585950E9436
:101070000E081092FD01089521E030E002C0220F19
:10108000331F8A95E2F78091330290913402822BCC
:10109000932B0E94090808959093320280933102A5
:1010A0000895FC0183819481892B29F080819181AD
:1010B00089238F3FF1F480E008950E94B90592954D
:1010C0009F70963089F058F4925F9F70923098F735
:1010D000803F19F030F4883E70F781E008959A5F00
:1010E000F4CF843F41F7F9CF883EB8F3813F19F739
:1010F000F4CF86819781009701F7808191810E94CA
:101100009307DDCF662309F45DC08D3C41F40E9456
:101110002005819580935F020E94D70408958E3C3C
:1011200019F40E942005F6CF8F3C31F40E9420056F
:10113000819580935E02F0CF803D19F40E942005D6
:10114000F8CF893D29F40E94FE0480936002E4CF29
:101150008A3D21F40E94FE048195F7CF8B3D31F446
:101160000E94FE04819580936102D6CF8C3D19F4D4
:101170000E94FE04F8CF9FE2980F983070F4815DD2
:10118000990B21E030E001C0220F8A95EAF78091A7
:101190005D02822B80935D02BFCF8D3D31F4809143
:1011A0005702816080935702B7CF8E3D21F4809122
:1011B00057028260F7CF8F3D09F0AECF8091570282
:1011C0008460F0CF40915E028D3C59F480915F02C3
:1011D00087FF0DC010925F0241110BC010925502A3
:1011E00008C08E3C81F480915F0218169CF3442362
:1011F00081F08091600290916102892B09F08CCF7F
:101200001092560289CF8F3C49F447FFF0CF1092DD
:101210005E0280915F028111ECCFE0CF803D19F436
:101220001416ACF3E4CF90916002893D29F41916AD
:10123000F4F610926002DBCF8A3D19F497FFD7CF06
:10124000F8CF909161028B3D29F497FFD0CF109297
:101250006102CDCF8C3D19F41916CCF3C8CF9FE2B3
:10126000980F983090F4815D990B21E030E0B9013E
:1012700002C0660F771F8A95E2F7CB0180959091A7
:101280005D02892380935D02B2CF8D3D31F4809160
:1012900057028E7F80935702AACF8E3D21F4809112
:1012A00057028D7FF7CF8F3D09F0A1CF8091570274
:1012B0008B7FF0CFA5E0B0E0E0E6F9E00C94391DBB
:1012C0009C01FC01868197810097E1F485E0DE01B5
:1012D000119601900D928A95E1F7F9012281898199
:1012E0009A81222399F0662389F00E945F07182FC4
:1012F000682F89819A810E94D30769817A81812F21
:101300000E949C052596E3E00C94551D0E94A007C1
:10131000182FF3CF0F931F93CF93DF938B01EA0125
:1013200090910503943061F58093E9008FEF9091DF
:10133000E800815095FD06C095ED9A95F1F7000003
:101340008111F5CF8091E80085FF1AC00E948902C3
:10135000811111C08091E80085FD06C08091E800F0
:101360008E778093E800F2CFF80181918F0180930E
:10137000F100219779F78091E8008E778093E8005B
:10138000DF91CF911F910F91089543E050E0BC0190
:1013900082E00E948A09089546E050E0BC0182E0A4
:1013A0000E948A090895CF93DF93EC018091250173
:1013B000811111C048E050E0BE0181E00E948A091D
:1013C00080E2FE01A3EEB2E001900D928A95E1F772
:1013D000DF91CF9108958091DE0287FF05C040E242
:1013E00082E050E0BE01EACF48E081E0FACF81E040
:1013F0008093E00080E28093D8001092C9008FE1D2
:101400009EE40197F1F700C0000087E090EBDC015B
:101410008093120390931303A0931403B0931503C6
:1014200088E19CE00FB6F894A895809360000FBE09
:1014300090936000FFCF80911E0290916402892BEF
:1014400080936E0190911F029923A1F0892B8093C4
:101450006E01809125018823E1F18091DE0287FFF2
:1014600038C08EE1E0E7F1E090E08150A0F5911105
:101470000E94480740E250E06EEF71E08EE691E096
:101480000E94B71D892B21F180E2EEE6F1E0AEEF7C
:10149000B1E001900D928A95E1F7E091D502F091CB
:1014A000D6023097A9F080912501882359F08091C8
:1014B000DE0287FF07C080916E0180936F0186E096
:1014C00080936E010280F381E02D8EE691E0099514
:1014D000089586E0C7CF2191222339F29F5FC5CFBF
:1014E000882321F00E944E070E941B0A089588233A
:1014F00039F090911E02982B90931E020E941B0AB5
:101500000895882399F19CEF980F913A40F4682F41
:101510008EE691E00E94E2030E941B0A089590E289
:10152000980F983050F4877091E001C0990F8A9518
:10153000EAF7892F0E944E07EFCF9BE5980F933073
:1015400028F490E080E00E946604089598E5980FE2
:10155000993128F490E080E00E944104089593E3DB
:10156000980F933118F460E00E9482080895CF9399
:10157000C82F8823D9F18CEF8C0F813AC8F5809160
:101580002501882311F18091DE0287FF1EC0EC2F18
:10159000E695E695E695F0E0E259FE4F828190E00F
:1015A0004C2F477021E030E002C0220F331F4A95D4
:1015B000E2F782239323892B91F06C2F8EE691E042
:1015C0000E94E2030E941B0A0AC0E0E7F1E086E7FE
:1015D00091E02191C21789F38E179F07D1F76C2FE5
:1015E0008EE691E00E940C040E941B0ACF910895A0
:1015F00080E28C0F883068F4C77021E030E001C0D1
:10160000220FCA95EAF780911E02822B80931E0258
:10161000EBCFEBE5EC0FE33040F4F0E0EA5DFE4F9A
:10162000808190E00E946604E1CFE8E5EC0FE931AB
:1016300050F4F0E0EE0FFF1FE75DFE4F80819181D7
:101640000E944104D3CF83E38C0F833178F661E0AD
:101650008C2F0E948208CACF0F931F93CF93DF93E2
:10166000C62FD42F022FFC0182818823A9F060931A
:1016700011030E94D6039093100380930F03C77049
:1016800081E001C0880FCA95EAF70E94770ADF91CE
:10169000CF911F910F91089580911103681335C068
:1016A00080910F03909110030E94C703883C91051D
:1016B00060F510E21D0FCD17B9F080E28C0F883075
:1016C00040F4C77081E001C0880FCA95EAF70E9414
:1016D000700A183048F481E09D2F977001C0880F80
:1016E0009A95EAF70E94770A802F0E94B70A802F06
:1016F0000E94810A183058F6D77081E001C0880F27
:10170000DA95EAF70E94700AC2CFC77081E001C083
:10171000880FCA95EAF7F6CF9091DF0292FB222755
:1017200020F9281779F080FB92F99093DF026091FD
:10173000DE027091DF0284E090E00E94A11D82E051
:101740000E942008089510921E0280912501E0E772
:10175000F1E0882329F18091DE0287FF21C08EE12C
:10176000DF011D928A95E9F790E080E00E9466040F
:1017700090E080E00E944104109264020E941B0AE3
:1017800086E0ECE5F2E0DF011D928A95E9F7109220
:10179000550210925602109257020E94D7040895E3
:1017A00086E0DECFAAE2B0E0E8EDFBE00C94391D64
:1017B00087E093E02091F100FC012193CF01F3E059
:1017C0008F309F07B9F780910803833009F470C008
:1017D000B8F4813009F447C0823009F4B1C0809177
:1017E000E80083FF7EC280910703909108039A303E
:1017F00008F077C2E92FF0E0EA53F24E0C94241D72
:101800008A3009F48CC08B3009F46FC0893039F705
:1018100080910703813219F780910B0390910C039B
:101820000297E8F68091E800877F8093E800809136
:10183000E80082FF38C09091F3008091F200029797
:1018400031F48091F100813011F0863021F48091E3
:10185000F1008093E2028091E8008B778093E800AA
:101860000E94BA02BCCF80910703813A09F0B7CF3A
:101870008091E800877F8093E80080910B0390912E
:101880000C03892B61F460E283EE92E070E00E9429
:1018900066038091E8008B778093E800A0CF60E03A
:1018A00090E080E0F3CF809105038111C0CF97CF06
:1018B00080910703813A09F092CF80910B039091B8
:1018C0000C03892B09F08BCF8091E800877F8093F0
:1018D000E8008091E80080FFFCCF80912501809393
:1018E000F1008091E8008E77B9CF809107038132B3
:1018F00009F075CF80910B0390910C03892B09F0AF
:101900006ECF8091E800877F8093E8000E94BA0242
:1019100080910903809325010E94A30B60CF8091E1
:101920000703813209F05BCF8091E800877F8093C5
:10193000E8000E94BA0280910A038093E1024FCF2F
:1019400080910703813A09F04ACF8091E800877FB0
:101950008093E8008091E80080FFFCCF8091E10255
:10196000BECF803899F0823809F0BBC180910B035B
:101970008F70873008F0B5C18093E9008091EB004B
:1019800085FB882780F91092E90006C08091030347
:1019900090910403911182609091E800977F909359
:1019A000E8008093F1001092F1008091E8008E77BA
:1019B00094C1882309F482C1823009F092C18091D8
:1019C0000903811185C180910B038F702FEF280FC0
:1019D000263008F086C18093E9002091EB0020FFBB
:1019E00077C1933031F48091EB0080628093EB00FB
:1019F0006FC19091EB0090619093EB0021E030E09B
:101A000001C0220F8A95EAF72093EA001092EA00BB
:101A10008091EB008860EACF811163C110910903C6
:101A20001F778091E3008078812B8093E300809181
:101A3000E800877F8093E8000E94BA028091E80066
:101A400080FFFCCF8091E30080688093E30082E018
:101A5000111183E08093050344C18058823008F05F
:101A600040C18091090390910A038C3D23E09207C5
:101A7000A1F583E08A838AE289834FB7F894DE0177
:101A8000139620E03EE051E2E32FF0E05093570040
:101A9000E49120FF03C0E295EF703F5FEF708E2F5F
:101AA00090E0EA30C0F0C7968D939D932F5F24316C
:101AB00059F74FBF8091E800877F8093E8006AE282
:101AC00070E0CE0101960E9466038091E8008B775A
:101AD0008093E80006C1C096E7CF40910B03509178
:101AE0000C03292F33272330310509F444C078F53E
:101AF0002130310509F46FC08BE390E0EAEEF3E0AA
:101B00002230310509F0EDC02091E800277F2093B5
:101B1000E80020910D0330910E038217930708F41B
:101B20009C0140E02115310509F064C0411162C0FB
:101B30008091E80082FDC9CF80910503882329F2B6
:101B4000853019F28091E80083FFF2CFBECF2132B9
:101B50003105A9F12232310509F0C3C04115510503
:101B600009F443C04130510509F0BBC086EB90E059
:101B7000E4EFF2E0C9CF992781309105C1F00097D9
:101B800059F0029709F0ADC0E7E3F4E0E4918E2F3D
:101B900090E0E7E3F4E007C0EBE5F4E0E4918E2F9A
:101BA00090E0EBE5F4E0009709F49BC0ADCFE9E4E9
:101BB000F4E0E4918E2F90E0E9E4F4E0F4CF4115F5
:101BC000510571F04130510509F08BC089E090E07A
:101BD000E5E1F4E099CF82E190E0E5E2F4E094CF32
:101BE00089E090E0ECEFF3E08FCF80E490E0EAEA68
:101BF000F3E08ACF80910503882309F466CF85300E
:101C000009F463CF8091E80083FD5FCF8091E80005
:101C100082FD8ECF8091E80080FF84CF9091F30009
:101C20008091F2002115310519F08830910550F0AE
:101C300041E0089709F040E08091E8008E778093BA
:101C4000E80070CF44914093F10031962150310962
:101C50000196E8CF803809F044C08091E800877F82
:101C60008093E800809106038093F1009ECE81115D
:101C700038C0109109031230A0F58091E800877FE9
:101C80008093E800109306030E94BA02112311F01A
:101C900084E005C08091E30087FDFACF81E0809366
:101CA000050342E061EC81E00E94D90242E261EC6E
:101CB00082E00E94D9028091050313C0809109033C
:101CC000813079F481E0933009F080E0809304035F
:101CD0001092E9008091E800877F8093E8000E94DD
:101CE000BA028091E80083FF0AC08091E800877FF4
:101CF0008093E8008091EB0080628093EB00AA96CD
:101D0000E3E00C94551D0E94A30B2FEF84E39CE0AD
:101D1000215080409040E1F700C0000088E19CE045
:101D20000FB6F894A895809360000FBE9093600062
:101D3000FFCFB0E0A0E0EFE9FEE00C94331D8C0192
:101D4000FC0183819481892B31F0808191818923E9
:101D50008F3F09F07EC3CDB7DEB7E9E00C944F1D8D
:101D600026E241EE61EEC8010E942C0B8091FD013C
:101D7000877089F3F8018281882369F38091DF02FB
:101D800082FFE9CF82E00E942008E5CF27E245EEFE
:101D900065EEE9CF26E241EE60EEE5CF27E245EEC3
:101DA00064EEE1CF26E241EE62EEDDCF27E245EEC2
:101DB00066EED9CF28E241E0EBCFF801828188239B
:101DC00009F46DC310921103CE019057839708F068
:101DD00050C384E090E00E947D1D9093DF028093C9
:101DE000DE02FE01E150F047E232F10520F4E0535B
:101DF000F24E0C94241D8091DE0281608093DE02FD
:101E000095C08091DF0288608093DF028FC080914F
:101E1000DE028260F3CF8091DE028460EFCF80919A
:101E2000DE028860EBCF8091DF028160EDCF809190
:101E3000DF028260E9CF8091DE028061DFCF809196
:101E4000DE028062DBCF8091DE028064D7CF0E9409
:101E5000A30B8091DE028068D1CF8091DE028C607E
:101E6000CDCF8091DF028360CFCF8091DE028E7F65
:101E7000C5CF8091DF02877FC7CF8091DE028D7F43
:101E8000BDCF8091DE028B7FB9CF8091DE02877F4C
:101E9000B5CF8091DF028E7FB7CF8091DF028D7F3B
:101EA000B3CF8091DE028F7EA9CF8091DE028F7D3D
:101EB000A5CF8091DE028F7BA1CF0E94A30B8091E2
:101EC000DE028F779BCF8091DE02837F97CF809158
:101ED000DF028C7F99CF8091DE0282FB992790F9F7
:101EE00021E0922790FB82F990FB83F987CF8091C4
:101EF000DF02982F909591708E7F892B90FB81F94E
:101F000083CF9091DE02892F8F7B96FF806476CFFE
:101F10000E94A30B9091DE02892F97FB87F98058CE
:101F20006DCF61E08EE090E00E94831D6091DE0243
:101F30007091DF0284E090E00E94A11D0E94A30B3B
:101F400015CF60E0EFCF9091DE02892F8F7E94FF56
:101F5000806154CF9091DE02892F8E7F90FF816047
:101F60004DCF9091DF02892F877F93FF88604CCF00
:101F70000E94A30BFFEF24E33CE0F15020403040EF
:101F8000E1F700C000000E94F7096FEF7FEF90E0DB
:101F900080E00E94A11D0E94830E8091DF0282FBDF
:101FA000882780F991E089270E948C0BF8018681AF
:101FB00097810097B9F10E94B905D82FC92FF80170
:101FC000F280D580D2943FE0D3228091FD018770CA
:101FD000C1F0CF2CFF20B1F0892F807F803421F019
:101FE00080E28D0F883068F08091DF0282FF09C0A7
:101FF00082E00E9420088091FD018770CC24C39468
:102000008111C12CBC2EB2942FE0B222FBE0FB1553
:1020100008F486C0EB2DF0E0EE50F24E0C94241D37
:1020200080E0C2CF8281C081D181882369F0CE0156
:102030000E945F07F82E682FCE010E94D307BE01D1
:102040008F2D0E949C05B7CFCE010E94A007F82ECD
:10205000F6CF2C2F2F70E22EC07F19F0E29490EF74
:10206000E922FF20B9F0EE2069F080E28D0F883080
:1020700010F0D11109C080911E02E82AE0921E02E0
:102080000E941B0A8D2F4AC080916402E82AE092C8
:102090006402F6CF8D2F0E94810AEE2009F440C021
:1020A00080E28D0F883010F0D11104C08E2D0E9477
:1020B0004E0706C0E09480916402E822E092640238
:1020C0000E941B0A2DC03C2F3F70E32EC07FC03200
:1020D00019F0E29480EFE822DD2381F0D13009F499
:1020E0006FC0FF2009F479C0DD2009F46FC0F8014A
:1020F000858180FFC7CF8F70858368C02091DF0204
:1021000022FD37C0FF2079F1EE2039F080911E02C8
:10211000E82AE0921E020E941B0A80E00E94B70A91
:10212000EB2DE850FF0B349710F40E948B04CC2069
:10213000A9F08091FD0180FD11C0F8011282859502
:10214000859585950E943C08C8010E94990E809152
:10215000FD018595859585950E940E0860E0C80172
:102160000E945A09F8CD80E00E94810AEE20C1F257
:102170009DCFFF2099F090911F02892F8E29D110B9
:1021800003C00E94770ACCCFE1E0DE12FACF22FF33
:10219000C7CF981729F280931F02C2CFD11006C073
:1021A0000E9448078E2D0E94700ABACFF1E0DF1618
:1021B00009F4B6CF8E2D0E94700A0E944807B0CF56
:1021C000FF2031F025E02D1508F4AACF8E2DD9CFB0
:1021D00034E03D1508F4A4CFE5CFDD2019F3D93361
:1021E00049F4FFEF27EE33E0F15020403040E1F7B3
:1021F00000C000008D2F0E94810A92CF8C2F8695FF
:102200008695837069F0813009F08ACF8D2F9C2FDD
:102210009370F11002C080E090E00E94410480CFF2
:102220008D2F9C2F9370F11002C080E090E00E94EF
:10223000660476CF6F2D8D2F0E94820871CF8C2F70
:10224000837009F03FC0F1106BCF4D2F429546953A
:102250004770440F440F2D2F2F7030E0042E02C022
:10226000220F331F0A94E2F790E080E0D4FF09C008
:102270008FE090E002C0880F991F4A95E2F78095A1
:102280009095C695C695C370C23099F078F4409188
:10229000310250913202C13039F0822B932B8423CA
:1022A00095230E944C083CCF242B352B822B932B5B
:1022B000F8CF822B932B209131023091320282276A
:1022C0009327EFCF8695FF2011F08C2F8170882304
:1022D00009F426CF4D2F429546954770440F440F81
:1022E0002D2F2F7030E0042E02C0220F331F0A94CE
:1022F000E2F790E080E0D4FF09C08FE090E002C0F8
:10230000880F991F4A95E2F780959095C695C695D6
:10231000C370C23099F078F4409133025091340286
:10232000C13039F0822B932B842395230E94090816
:10233000F7CE242B352B822B932BF8CF822B932B8C
:10234000209133023091340282279327EFCFCF7050
:10235000FF2029F08C2F0E943C088D2F12CF8D2F4B
:102360000E94700A8C2F0E940E08DACED23F71F1C3
:1023700060F4D03FB9F0D13F81F0FF2009F459C09B
:10238000D11080CE8C2F8F7125C0D33F31F1D43F37
:10239000A1F78091DF0282FD2EC08C2F8F71FF206C
:1023A00011F318C0FF2069F084E08D1508F4B8CE51
:1023B000CF7181E090E002C0880F991FCA95E2F7C3
:1023C000BFCF95E09D1508F4ABCEF2CF8C2F8F7167
:1023D000F110C9CF0E943C08A3CE90E080E0FF201E
:1023E00009F4A4CFCF7181E090E002C0880F991F5B
:1023F000CA95E2F79BCFFF2089F0CF718C2F0E9406
:102400003C088091DF0282FF07C0E8E0CE9FC00158
:10241000112483608093FD018C2FDCCF81E00E942A
:102420002008F1E0FD1508F07BCE82E00E94200834
:1024300077CEDD2059F0D93309F0DCCE2FEF37EE1F
:1024400083E0215030408040E1F7D2CE8C2F8F7155
:102450008ACF61E0C8010E945A09EC01FC01E851F1
:10246000FC47E730F10508F0A8CCE250F24E0C949E
:10247000241DC631FCE7DF0701F580911E028A7A30
:1024800091E009F490E090938E0169E2811165E397
:102490008EE691E00E940C040E941B0A67CCC631B4
:1024A000DC4709F083CD80918E0169E2811165E3FB
:1024B0008EE691E00E94E203EFCFC3303CE7D30702
:1024C00009F463CD50F4C1159CE7D90709F450CD48
:1024D000C130DC4709F45FCD69CDCB35FCE7DF07C0
:1024E00009F49ECDCC352CE7D20709F456CDCA3578
:1024F000DC4709F05BCD81E057CDCF93DF9380912E
:10250000B801807F09F049C08091B501882309F4A2
:1025100044C08091FC01D091BB016091B3017091E6
:10252000B401A091B601B091B701C62FC723D81747
:10253000A1F190E0109711F0CF3F19F40196877048
:10254000F6CF9C0143E0220F331F4A95E1F7F901D2
:10255000E454FE4F41814713F1CF40814613EECF43
:1025600042814111EBCF438154814A1B5B0B483CB4
:10257000510520F78091B8018F7080618093B80178
:10258000F901EF53FE4F80818F708061808383EB70
:1025900091E00E94990E0E945507DF91CF91089516
:1025A000A5E1B0E0E6EDF2E10C94321D8C0185E08E
:1025B000F801DE01519601900D928A95E1F7F8013C
:1025C000E28063EBA62E61E0B62E6091B6017091B9
:1025D000B7016115710509F45CC19091B301409197
:1025E000B401892F84238F3F09F453C120813181A5
:1025F000C380D480F090B501F601E61BF70BFF20F5
:1026000009F411C18091B801582F507FE83CF105C1
:1026100008F0C4C0511175C0FE2C43131EC09213A4
:102620001CC06091B9017091BA01F80146815781CF
:102630006417750791F4E11010C08F70806180936A
:10264000B801C5010E94990E8091B801F8018583F7
:102650008F2D6596EAE00C944E1DC114D10429F02B
:10266000822F83238F3F09F02FC180E0F82FF17074
:10267000DF2E80FF3CC08091FC014091BB018413A0
:1026800015C0298B3A8B89899A890E949307292F33
:1026900022952F702230F8F0243020F59F70F9F049
:1026A000F8019581907FD9F4D12C1FC090E0FC01F6
:1026B00053E0EE0FFF1F5A95E1F7E454FE4F5181AE
:1026C000351306C05081251303C05281E5120FC097
:1026D00001968770D4CF9F7011F0882329F3805E14
:1026E000883010F3C8010E94990EFD2CB1CFEE2066
:1026F00009F4AECF8091B80181608093B801F12CCC
:10270000A7CF43131BC0921319C04091B901509138
:10271000BA01F801268137814217530779F4E11095
:102720000DC08583C8010E94990E88E0F801A3EBD3
:10273000B1E001900D928A95E1F78ACFC8010E941D
:102740005108882339F1EE2029F18091B8018032B7
:10275000A0F02091B3013091B4013A8729871B86FC
:10276000DD86CC868E878091B9019091BA01988BD5
:102770008F87CE0109960E94990E88E0F801A3EB9D
:10278000B1E001900D928A95E1F70E947D12FF243D
:10279000F3945ECFC8010E94990EF9CF51110AC07F
:1027A00083EB91E00E94990E88E0F50111928A95E1
:1027B000E9F7A5CF431318C0921316C04091B90191
:1027C0005091BA01F801268137814217530761F40D
:1027D000E1100AC08583C8010E94990E88E0F501C6
:1027E00011928A95E9F734CFC8010E9451088823D5
:1027F00089F2EE2079F28091B801803208F4BDCFE1
:102800002091B3013091B4013A8329831B82DD8288
:10281000CC828E838091B9019091BA0198878F8381
:10282000CE010196A8CFE83CF105C0F6FE2CEE20C3
:1028300009F4B0CF43131FC092131DC02091B901FA
:102840003091BA01F801868197812817390799F4E8
:102850009091B80190FD69CF907F09F466CF809187
:10286000B8018583903F09F45DCF982F907F905FEA
:102870008F70892B56CFC8010E94510881117DCFDE
:102880008091B80181608093B801C8010E94990EBF
:10289000DFCEEE2009F47ECFC8010E945108F82E49
:1028A000882309F477CF88E0F801A3EBB1E0019029
:1028B0000D928A95E1F78091B3019091B4010E9445
:1028C00093070E947D12C4CE81E08E25CFCEA0E179
:1028D000B0E0EDE6F4E10C943A1D29873A874B8786
:1028E0005C876D877E878F87988BCE0109960E94C3
:1028F000D012811112C088E0FE013996DE011196D6
:1029000001900D928A95E1F78C859D85892B29F0A0
:1029100089859A8589238F3F81F58091FC0190916B
:10292000BB01891317C06096E2E00C94561D93E03A
:10293000AA0FBB1F9A95E1F7A454BE4F98E0FE0181
:10294000319601900D929A95E1F78093BB010E9418
:102950005507E3CFB8E08B9FC001112484549E4FEC
:102960000E94D0128823F9F28091FC0190E0019638
:10297000877099278093FC01D0CFA091BB01B0E074
:10298000CD010196877099272091FC01281719061F
:1029900071F60E94A30B1092BB011092FC0188E01B
:1029A000E3EBF1E0DF011D928A95E9F7B6CF0F93D3
:1029B0001F93CF93DF9380916602E0916502CCE094
:1029C00081111AC0DF91CF911F910F910895D1E02D
:1029D000DE0FD09365020E2F10E0EC9FF001112462
:1029E000E959FD4F83819481892B29F08081918160
:1029F00089238F3F51F4ED2F80916602E81738F359
:102A00001092660210926502DDCFC09FD001C19F77
:102A1000B00D1124A959BD4F16968D919C91179711
:102A2000892B29F418968D919C91019651F420815F
:102A300031814281538164817581868197810E94B1
:102A40006714C09FF001C19FF00D1124E959FD4F9B
:102A50001482138210926402CECF1092D20210928E
:102A6000D102109224018091D0028093CF020E9463
:102A7000C6040E94D7140895B0E0A0E0E2E4F5E1B6
:102A80000C942A1DC091CF02E7E0FE2E01E010E079
:102A9000FCE02F2EAEEFEA2E8091D0028C1309C0FD
:102AA0000E94D7140E94C604CDB7DEB7E2E10C94B1
:102AB000461DD0E0FE01EE0FFF1FE953FD4F808160
:102AC0009181F89EF001F99EF00D1124E85FFE4F10
:102AD0002481211159C030906602A7E6B2E030E0AF
:102AE00020E0412C5F01231508F04CC01A966D9030
:102AF0007C901B97F501808091804FEF5FEF512C08
:102B0000C52CD12CF601EE0FFF1FE80DF91D6591C4
:102B100074916616770609F4A601672B11F0539499
:102B2000EFCF4F3F5407B9F1B80102C0660F771FCE
:102B30004A95E2F7462AA801052C02C0440F551F0A
:102B40000A94E2F7415051094416150601F5229EF8
:102B5000F001239EF00D1124E959FD4FF89ED0019C
:102B6000F99EB00D1124A85FBE4F12962D913C9195
:102B7000139737832683E082E1829187808771E013
:102B800015967C930E9498042196C37085CF149665
:102B90001C921E9213972F5F3F4F1C96A4CFA9E162
:102BA000B0E0E5EDF5E10C942A1D498B5A8B6B8B57
:102BB0007C8B8D8B6111109264021D861E861F8690
:102BC000188A85E0FE017196DE01199601900D923A
:102BD0008A95E1F78C859D85892B31F089859A85C9
:102BE00089238F3F09F0BFC129853A854B855C85D4
:102BF0006D857E858F8598890E946714C2C021E506
:102C0000C2162CE7D20629F4882379F00E942D15EC
:102C1000EBCF32E5C3163CE7D30639F4882329F01D
:102C2000809124018111F2CFAEC108E011E0E12CC6
:102C3000B12CA12C88248394912C9EEF592E4424EE
:102C40004394F8016081718166246A94762C20E0B7
:102C5000422F50E0FA01EE0FFF1FE60FF71F85919C
:102C60009491C816D90609F43A01892B11F02F5F07
:102C7000EFCFF12CFFEF6F167F0609F444C0F80187
:102C80004481F09024018F2D411180E0F82FF170E4
:102C9000FF2EF801258086819B85992309F4F2C0D7
:102CA000FF2009F4EFC0211014C0A401062C01C0BC
:102CB000440F0A94EAF7842B8683809162029091F4
:102CC0006302C29730F442E350E0509363024093B2
:102CD0006202C40102C0880F991F2A95E2F701978A
:102CE000F80126812817190671F48091D10290917C
:102CF000D202009709F449C00E94C703C39708F4A1
:102D000044C0F8014482EF28FFEFAF1ABF0A095F01
:102D10001F4F24E0A216B10409F093CF8B858823BE
:102D200009F40CC1EE2009F409C10E94D603909366
:102D3000D2028093D10280916602883010F591E032
:102D4000980F9093660298E0FE013996DE01119685
:102D500001900D929A95E1F73CE0839FC001112408
:102D600089599D4F28E0FE013196DC0101900D92BA
:102D70002A95E1F72FEF3FEFFC0131872087D386BB
:102D8000C2866996E2E10C94461D8091CF02609064
:102D9000D002982FF0E0E0E0861114C09093CF02AB
:102DA0000E171F0709F4AFCF90E0FC01EE0FFF1FD5
:102DB000E953FD4FB182A0820196837099278093D9
:102DC000D002A1CF282E312CF101EE0FFF1FE953C5
:102DD000FD4F20813181F7E0F29FD001F39FB00DCC
:102DE0001124A85FBE4F2D913C911197398F288FE8
:102DF000712C60E070E0E72FF0E0EE0FFF1F288DF0
:102E0000398DE20FF31F2591349121153105E1F041
:102E1000F8010190F081E02DFF8BEE8B60E005C0A2
:102E20002417350709F47F2C6F5FE62FF0E0EE0FD3
:102E3000FF1F4E895F89E40FF51F4591549141159D
:102E4000510571F77F5FD7CF7720C9F0F801671779
:102E500008F0FD0144820E171F0721F49093CF0262
:102E6000F72C51CF981305C0AE17BF0711F49F5F21
:102E7000937091012F5F3F4F822F83708DCFF0E0D1
:102E8000E0E0F7CF90E0211020C0B40102C0660F4F
:102E9000771F2A95E2F79B0121503109281739073E
:102EA00031F4442309F448C0C5010E949804C401C8
:102EB000062C01C0880F0A94EAF7982F9095F80124
:102EC000868189238683F22C1ECF9C01062C02C0AA
:102ED000359527950A94E2F7A90141705527BC0161
:102EE0006150710986239723892B11F5452B01F138
:102EF000F80182819381892BC1F01B821C821D8283
:102F00001E8259825A820E94D6038160582F9D8367
:102F10008C83F801828193818F83988729813A81FC
:102F20004B816D817E810E946714F8011582BFCFAD
:102F3000F22FF1702F2EBBCF2F2CB9CF9091CF0253
:102F40008091D002981731F00E943C15EE2009F4D0
:102F50004BCE17CF0E94D7141092D2021092D102FA
:102F60000E94C604F3CF61E0CE0109960E945A097F
:102F70006C018B85F0E5CF16FCE7DF0609F03FCE4C
:102F8000882309F452CE81E0809324012DCEAEE057
:102F9000B0E0EDECF7E10C94301D8E010F5F1F4F98
:102FA0008EE0F80111928A95E9F79BE5E92E91E010
:102FB000F92E6801AA24A394B12CF70181917F0115
:102FC0008F3F09F446C0F894E82FE295EF70F0E0E7
:102FD00021A18F70A50102C0440F551F8A95E2F709
:102FE000CA01922F982B91A392A18095892382A345
:102FF000789400C0E2E6F1E021E030E0912C812CF1
:1030000041914F3F09F467C0A42FA295AF70B0E083
:1030100090968C9190E04F7002C0959587954A9557
:10302000E2F780FD58C0C901882A992A220F331F70
:1030300051E0EC36F50721F7F701319780818F3F9A
:1030400011F00E94420580EA8A95F1F7F60191821B
:103050008082F2E0CF0ED11C42E6E41641E0F40695
:1030600009F0ABCF4EE050E0B80183E292E00E945D
:10307000B71D892B99F18EE0F801A3E2B2E001902F
:103080000D928A95E1F781E0809322020E94D60397
:10309000909321028093200280912002909121023E
:1030A0000E94C7030597F0F04EE050E063E272E043
:1030B00087E392E00E94B71D892BC9F08EE0E3E21E
:1030C000F2E0A7E3B2E001900D928A95E1F781E08A
:1030D0001092220208C090E080E0A6CF80912202E8
:1030E0008111DACF80E02E96ECE00C944C1D80E04C
:1030F000EFCF1F920F920FB60F9211242F933F9391
:103100004F935F936F937F938F939F93AF93BF93EF
:10311000CF93DF93EF93FF93D091E900DF7080911D
:10312000EC00C82FC17080FDC0E81092E9008091CA
:10313000F000877F8093F00078940E94D20B109269
:10314000E9008091F00088608093F000CD2BCF7073
:10315000C093E900FF91EF91DF91CF91BF91AF91C3
:103160009F918F917F916F915F914F913F912F919F
:103170000F900FBE0F901F9018951F920F920FB6D1
:103180000F9211242F933F934F935F936F937F93ED
:103190008F939F93AF93BF93EF93FF938091E10041
:1031A00082FF09C08091E20082FF05C08091E100AA
:1031B0008B7F8093E1008091DA0080FF24C08091B2
:1031C000D80080FF20C08091DA008E7F8093DA00E3
:1031D0008091D90080FF9DC080E189BD82E189BDD9
:1031E00009B400FEFDCF81E0809305038091E002E9
:1031F000811109C00E946A020E940B038091E200C3
:1032000084608093E2008091E10080FF17C080918C
:10321000E20080FF13C08091E2008E7F8093E20085
:103220008091E20080618093E2008091D80080620A
:103230008093D80019BC85E0809305038091E1005C
:1032400084FF2BC08091E20084FF27C080E189BD0C
:1032500082E189BD89B5982F917080FFFBCF809165
:10326000D8008F7D8093D8008091E1008F7E80937D
:10327000E1008091E2008F7E8093E2008091E20085
:1032800081608093E20080910603882309F447C09F
:1032900084E080930503809105038091E10083FF22
:1032A00027C08091E20083FF23C08091E100877FE7
:1032B0008093E10082E080930503109206038091E1
:1032C000E1008E7F8093E1008091E2008E7F809309
:1032D000E2008091E20080618093E20042E060E0E1
:1032E00080E00E94D9028091F00088608093F00015
:1032F000FF91EF91BF91AF919F918F917F916F91CE
:103300005F914F913F912F910F900FBE0F901F90A3
:10331000189519BC109205031092E00274CF8091A9
:10332000E30087FD93E090930503B5CF78941F9257
:103330001FB61F9211248F939F93AF93BF938091D9
:10334000DA029091DB02A091DC02B091DD020196DD
:10335000A11DB11D8093DA029093DB02A093DC02E1
:10336000B093DD02BF91AF919F918F911F901FBECF
:103370001F9018951F921FB61F9211248F939F9331
:10338000AF93BF938091D902811113C08091DA026B
:103390009091DB02A091DC02B091DD024196A11D6B
:1033A000B11D8093DA029093DB02A093DC02B0930C
:1033B000DD02BF91AF919F918F911F901FBE1F9013
:1033C0001895CDB7DEB760970FB6F894DEBF0FBE85
:1033D000CDBF85B7806885BF85B7806885BF84B756
:1033E000877F84BF0FB6F894A895809160008861AC
:1033F00080936000109260000FBE80E890E00FB6EE
:10340000F89480936100909361000FBE80E495E092
:1034100090936D0180936C010E946A020E940B03DD
:103420008091E20084608093E200789480910503AB
:103430008823A1F01091E9001F709091EC00892F72
:10344000817090FD80E8182B1092E9008091E800CF
:1034500083FD0E94D20B1F701093E90082E084BDAF
:1034600093E095BD9AEF97BD80936E000BE511E058
:1034700072E6E72E71E0F72ED8018D918D018F3F16
:1034800011F00E944205E016F106B1F702E611E0E4
:103490006CE6E62E61E0F62EF80181918F018F3FF8
:1034A00011F00E944205E016F106B1F78EE0E7E365
:1034B000F2E0DF01282F1D922A95E9F7E3E2F2E01E
:1034C000DF011D928A95E9F790E080E00E947D1D62
:1034D000873E9E4F09F45EC067EE7EEF90E080E08D
:1034E0000E94A11D60E082E090E00E94831D60E0E8
:1034F00083E090E00E94831D10923202109231020C
:1035000060E074E184E090E00E94A11D60E086E04C
:1035100090E00E94831D6FEF87E090E00E94831D82
:1035200040E050E0BA0188E090E00E94951D60E024
:103530008DE090E00E94831D40E050E0BA0188E1F8
:1035400090E00E94951D60E087E190E00E94831D5D
:1035500040E050E0BA018CE190E00E94951D70E0DF
:1035600060E080E290E00E94A11D40E050E0BA01DE
:1035700088E190E00E94951D40E050E0BA018FE0A4
:1035800090E00E94951D40E050E0BA0183E190E098
:103590000E94951D82E090E00E94751D8093450277
:1035A00084E090E00E947D1D9093DF028093DE0214
:1035B0000E94C717EFEFF6E721E0E150F04020400E
:1035C000E1F700C000000E94C7178091370280FF1A
:1035D00008C06FEF7FEF90E080E00E94A11D0E9485
:1035E000F70983E090E00E94751D90E00E944C086E
:1035F00080E091E09093D6028093D50248E1442E7A
:10360000512C55E4652E52E0752E8091050312E190
:10361000853009F495C00E94C71726E4A22E22E047
:10362000B22E37E3832E32E0932ED401F50121919F
:1036300031918D919D9142E0E435F40709F48AC0FF
:1036400028173907A1F3312CD4010D911D914D019B
:10365000F501C190D1905F01C016D10659F1C02685
:10366000D126212CEE24E394F12CC6018E219F213A
:10367000892BB1F02C863D8621E0C8018E219F2147
:10368000892B09F420E02E870E94D6038160782FD1
:10369000988B8F874C855D856E8588890E94CF15B4
:1036A0002394EE0CFF1CFAE02F12DFCFF5013297C6
:1036B00011830083339427E03212C6CF8FB7F8947A
:1036C0004091DA025091DB026091DC027091DD02E0
:1036D0008FBF62C080910503843011F11092D9022E
:1036E00040E40FB6F894A895409260000FBE409356
:1036F000600083B7817F846083BF83B7816083BFAD
:103700007894889583B78E7F83BF0FB6F894A89579
:1037100080916000886180936000109260000FBE0D
:1037200080910403882361F00E94C717E7E3F2E069
:1037300081919191892B09F052C16E167F06C1F7D4
:1037400080910503853009F4C5CF0E94A30B0E9428
:103750008B0461CF2817390709F075CF0E94D60373
:103760008C01809135029091360208171907A1F05B
:103770008FEF8F83888719860E94D6038160782F08
:103780009B878A874F81588569858B850E94CF15D5
:10379000109336020093350280912401882301F1B1
:1037A0008091D1029091D2020097D1F00E94C7037C
:1037B00020916202309163022817390788F49091B2
:1037C000CF028091D002981709F4F0C00E943C15F6
:1037D00010926302109262021092D2021092D102F1
:1037E00086E0ECE5F2E0DE01119601900D928A95FB
:1037F000E1F710925E0210925F0210926002109246
:1038000061028B819C81892B09F44AC080915A0204
:1038100090915B020E94C7039C01909155029923ED
:1038200009F4F9C025313105D8F19F3F19F09F5FA8
:10383000909355021B81112359F00E9420059FEFA0
:1038400011160CF491E0899F802D112480935E0263
:103850001C81112359F00E9420059FEF11160CF4D2
:1038600091E0899F802D112480935F0230915E0248
:103870003323B1F020915F02222391F045EB340312
:10388000C0011124992309F49AC090935E0245EB7C
:10389000240390011124332309F495C030935F026F
:1038A0008D819E81892B09F44AC0809158029091A4
:1038B00059020E94C7039C0190915602992309F472
:1038C000A5C021353105D8F19F3F19F09F5F909336
:1038D00056021D81112359F00E94FE049FEF11161C
:1038E0000CF491E0899F802D1124809360021E8149
:1038F000112359F00E94FE049FEF11160CF491E081
:10390000899F802D112480936102309160023323BE
:10391000B1F020916102222391F045EB3403C00104
:103920001124992309F453C09093600245EB2403BA
:1039300090011124332309F44EC03093610246E014
:1039400050E0BE016F5F7F4F8CE592E00E94B71D93
:10395000892B61F480915E0290915F02892B909196
:103960006002892B90916102892B11F00E94D7048B
:1039700086E0FE013196ACE5B2E001900D928A95A9
:10398000E1F70E948B0490915402891709F43DCE0F
:10399000809354028FB7F8944091DA025091DB0281
:1039A0006091DC027091DD028FBF2FCE0E94D71490
:1039B0001092D2021092D1020E94C60411CF81E06F
:1039C00080935E0264CF81E080935F0269CF81E0E3
:1039D00080936002ABCF81E080936102B0CF80E141
:1039E00089BD19BD09B400FEFDCF8091D8008F7D3F
:1039F0008093D8008091E00082608093E000809105
:103A0000E00081FDFCCF0E94A30B9ACE2B30310544
:103A100008F05CCF94CF2B30310508F008CF40CFB1
:103A200097FB072E16F4009407D077FD09D00E946B
:103A3000611D07FC05D03EF4909581959F4F089538
:103A4000709561957F4F0895EE0FFF1F0590F491DB
:103A5000E02D09942F923F924F925F926F927F9246
:103A60008F929F92AF92BF92CF92DF92EF92FF928E
:103A70000F931F93CF93DF93CDB7DEB7CA1BDB0B3A
:103A80000FB6F894DEBF0FBECDBF09942A883988DF
:103A900048885F846E847D848C849B84AA84B984E6
:103AA000C884DF80EE80FD800C811B81AA81B981F2
:103AB000CE0FD11D0FB6F894DEBF0FBECDBFED0106
:103AC0000895AA1BBB1B51E107C0AA1FBB1FA61765
:103AD000B70710F0A61BB70B881F991F5A95A9F7B7
:103AE00080959095BC01CD010895F999FECF92BDC6
:103AF00081BDF89A992780B50895A8E1B0E042E029
:103B000050E00C94A91D262FF999FECF92BD81BDDE
:103B1000F89A019700B4021639F01FBA20BD0FB60B
:103B2000F894FA9AF99A0FBE08950396272F0E94E7
:103B3000841D0E94831D252F0E94841D242F0C9418
:103B4000841D0196272F0E94841D0C94831DDC0187
:103B5000CB01FC01F999FECF06C0F2BDE1BDF89A98
:103B6000319600B40D9241505040B8F70895FB01D2
:103B7000DC0104C08D910190801921F44150504026
:103B8000C8F7881B990B0895F894FFCFB10CD90C96
:103B9000710ED90C710E0C0D2D0D710E2A0E370EF3
:103BA000350FAA0F3D0F070F0B0F410F0F0F450FDA
:103BB000510F1B0FA30F1F0F550F230F590F810F0D
:103BC000270F5D0F880F2D0F630F6B0F130F490F1A
:103BD000170F4D0F310F670F770F910FA10F010FC7
:103BE000390FB10F2910291063106310FE101A113C
:103BF000901090101F11A711B611B611CA0ECE0E5B
:0A3C0000B00EC60ED20ED60EDA0E7C
:103C0A00C403D309CC09C509BE004C00000000B8A2
:103C1A00002900000000B200E000000000AC00E64D
:103C2A00000000000101818283E200E900EA00B598
:103C3A0000B600B700CD008301CC008A019201943E
:103C4A00012102230224022502260227022A02B3A4
:103C5A0000B4006F0070009F01CB01C63435923367
:0C3C6A003236F4F5F6F73197669490912D
:00000001FF
